:0400000058EF00F0C5
:100008005B82FACF01F0FBCF02F0D9CF03F0DACF51
:1000180004F0F2AC12EF00F014EF00F04EEF00F035
:100028009DA819EF00F01BEF00F031EF00F09EA83B
:1000380020EF00F022EF00F031EF00F002D82FEFB0
:1000480000F00500FA6E0001EB51FD6EEC51FE6EFA
:10005800FF6AFA5012004EEF00F09DAA36EF00F04A
:1000680038EF00F04EEF00F09EAA3DEF00F03FEFB2
:1000780000F04EEF00F002D84CEF00F00500FA6EE9
:100088000001E951FD6EEA51FE6EFF6AFA50120056
:100098004EEF00F004C0DAFF03C0D9FF02C0FBFF37
:0C00A80001C0FAFF5B921100B2EF11F0F2
:10100000006824402430248218021A5C24CC1BF28D
:1010100024EA24E224DA24D224CA24C2245024F06C
:101020001E536C69646572203D2025640D0A000022
:1010300024C03CF025C03DF026C03EF027C03FF064
:1010400028C040F029C041F02AC042F02BC043F034
:1010500043BE2DEF08F030EF08F0010E31EF08F03D
:10106000000E3A6E3B6A3A503B10D8B43AEF08F0A3
:101070003CEF08F04CEF08F0431E421E411E401E9C
:101080003F1E3E1E3D1E3C6C000E3D223E223F2276
:1010900040224122422243220001AEBF52EF08F01B
:1010A00054EF08F055EF08F0AF93AEBF62EF08F0D1
:1010B000AE5106E1AD05D8B060EF08F062EF08F080
:1010C00068EF08F0000E376E010E366E6CEF08F018
:1010D000ADC036F0AEC037F0ABC038F0ACC039F0C0
:1010E0003A503B10D8A477EF08F079EF08F080EF82
:1010F00008F0AFA57EEF08F080EF08F083EF08F06E
:101100003806D8A03906000E456E1F0E446E000E3C
:10111000D26F07EF09F04406D8A04506B30E442469
:10112000D96E000E4520DA6E3CC005F03DC006F0D9
:101130003EC007F03FC008F040C009F041C00AF0CF
:1011400042C00BF043C00CF00A0E0D6E000E0E6E86
:10115000000E0F6E000E106E000E116E000E126E5D
:10116000000E136E000E146E2CEC0BF005C02CF06C
:1011700006C02DF007C02EF008C02FF009C030F0D7
:101180000AC031F00BC032F00CC033F02CC017F0A5
:101190002EC018F06EEC10F01750300FDF6E3606D0
:1011A000D8A037063806D8A039063CC005F03DC0A7
:1011B00006F03EC007F03FC008F040C009F041C053
:1011C0000AF042C00BF043C00CF00A0E0D6E000E88
:1011D0000E6E000E0F6E000E106E000E116E000EE1
:1011E000126E000E136E000E146E68EC0AF005C04D
:1011F0003CF006C03DF007C03EF008C03FF009C01B
:1012000040F00AC041F00BC042F00CC043F045BEB4
:1012100012EF09F0455008E14404D8A012EF09F09C
:1012200014EF09F045EF09F03C503D103E103F101F
:101230004010411042104310D8A421EF09F023EFD1
:1012400009F08BEF08F037BE30EF09F0375006E1B8
:101250003604D8B02EEF09F030EF09F08BEF08F02C
:1012600039BE3BEF09F0395008E13804D8A03BEF14
:1012700009F03DEF09F045EF09F00001AFB343EF8E
:1012800009F045EF09F08BEF08F03A503B10D8A475
:101290004CEF09F04EEF09F056EF09F00001AFA551
:1012A00054EF09F056EF09F074EF09F04406D8A0A6
:1012B00045063A503B10D8A460EF09F062EF09F000
:1012C00068EF09F0000E356E2B0E346E6CEF09F0EE
:1012D000000E356E2D0E346EB30E4424D96E000E02
:1012E0004520DA6E34C0DFFF22C017F023C018F0AB
:1012F000B30E4424196E000E45201A6E38C01BF040
:1013000039C01CF0DEEC0BF017C022F018C023F03F
:10131000120048C0D9FF49C0DAFFDECFF6FFDDCFAB
:10132000F7FFF86A0800F550250AD8A49AEF09F0EB
:101330009CEF09F04BEF0AF048C0D9FF49C0DAFF33
:10134000DE2A000EDD22000E0001AC6F000EAB6F36
:10135000ABC0AFF0ACC0B0F0AD69AE6948C0D9FF6A
:1013600049C0DAFFDECFF6FFDDCFF7FFF86A0800ED
:10137000F550640AD8B4BFEF09F0C1EF09F0D4EF1B
:1013800009F048C0D9FF49C0DAFFDECFF6FFDDCF54
:10139000F7FFF86A0800F550690AD8A4D2EF09F0FF
:1013A000D4EF09F014EF0AF048C0D9FF49C0DAFFC2
:1013B000DE2A000EDD224AC0D9FF4BC0DAFFDFCFA4
:1013C0004CF0020EDE26DFCF4DF0000EDD224CC0C9
:1013D000D9FF4DC0DAFFDECF4EF0DDCF4FF0000E6B
:1013E0004FBEFF0E506E516E526E536E546E556E60
:1013F00046C022F047C023F04EC024F04FC025F075
:1014000050C026F051C027F052C028F053C029F038
:1014100054C02AF055C02BF018EC08F022C046F05A
:1014200023C047F067EF0AF048C0D9FF49C0DAFF90
:10143000DECFF6FFDDCFF7FFF86A0800F550250A8A
:10144000D8A425EF0AF027EF0AF03EEF0AF048C0D3
:10145000D9FF49C0DAFFDE2A000EDD22000E086E39
:10146000250E076E46C009F047C00AF054EC0DF097
:10147000000E476E010E466E67EF0AF048C0D9FFB6
:1014800049C0DAFFDE2A000EDD22000E476E000E94
:10149000466E67EF0AF048C0D9FF49C0DAFFDECFD9
:1014A000F6FFDDCFF7FFF86A0800F550076E086A0F
:1014B00046C009F047C00AF054EC0DF048C0D9FF0F
:1014C00049C0DAFFDE2A000EDD2238EF0AF01200F2
:1014D000000E166E14BE71EF0AF06FEF0AF083EF84
:1014E0000AF0141E131E121E111E101E0F1E0E1EB9
:1014F0000D6C000E0E220F22102211221222132236
:101500001422010E166E0CBE8AEF0AF088EF0AF064
:101510009CEF0AF00C1E0B1E0A1E091E081E071E59
:10152000061E056C000E06220722082209220A2246
:101530000B220C22010E161A20EE17F0070EDE6A9F
:10154000E806FDE20D500E100F10101011101210D1
:1015500013101410D8B4AFEF0AF0B1EF0AF003EF94
:101560000BF0010E156EBFEF0AF0D8900D360E3657
:101570000F3610361136123613361436152A14AEBD
:10158000C4EF0AF0C6EF0AF0B5EF0AF0D8901736AC
:10159000183619361A361B361C361D361E360D50B7
:1015A000055C0E5006580F5007581050085811503F
:1015B000095812500A5813500B5814500C58D8A000
:1015C000E4EF0AF0E6EF0AF0F7EF0AF00D50055EDF
:1015D0000E50065A0F50075A1050085A1150095A07
:1015E00012500A5A13500B5A14500C5A1780D890A4
:1015F000143213321232113210320F320E320D32D7
:10160000152EC6EF0AF01650D8B409EF0BF00BEF09
:101610000BF01BEF0BF01E1E1D1E1C1E1B1E1A1EA8
:10162000191E181E176C000E182219221A221B22CE
:101630001C221D221E2217C005F018C006F019C07A
:1016400007F01AC008F01BC009F01CC00AF01DC04A
:101650000BF01EC00CF01200000E166E0CBE35EF23
:101660000BF033EF0BF047EF0BF00C1E0B1E0A1EB6
:10167000091E081E071E061E056C000E0622072204
:10168000082209220A220B220C22010E166E14BE19
:101690004EEF0BF04CEF0BF05EEF0BF0141E131E31
:1016A000121E111E101E0F1E0E1E0D6C000E0E229D
:1016B0000F22102211221222132214220D500E107A
:1016C0000F1010101110121013101410D8B46BEF6B
:1016D0000BF06DEF0BF0B5EF0BF0010E156E7BEF1D
:1016E0000BF0D8900D360E360F36103611361236F6
:1016F00013361436152A14AE80EF0BF082EF0BF080
:1017000071EF0BF00D50055C0E5006580F50075846
:10171000105008581150095812500A5813500B58BD
:1017200014500C58D8A097EF0BF099EF0BF0A9EFDD
:101730000BF00D50055E0E50065A0F50075A105010
:10174000085A1150095A12500A5A13500B5A145081
:101750000C5AD890143213321232113210320F3226
:101760000E320D32152E82EF0BF01650D8B4BBEFAF
:101770000BF0BDEF0BF0CDEF0BF00C1E0B1E0A1E95
:10178000091E081E071E061E056C000E06220722F3
:10179000082209220A220B220C2205C005F006C0ED
:1017A00006F007C007F008C008F009C009F00AC039
:1017B0000AF00BC00BF00CC00CF012000001AFA13E
:1017C000E4EF0BF0E6EF0BF0F0EF0BF019C010F0C8
:1017D0001AC011F017C012F018C013F009EC10F085
:1017E0001CBEF5EF0BF0F7EF0BF0FDEF0BF01BC09D
:1017F00020F01CC021F001EF0CF0000E216E000E55
:10180000206E000E1F6E000E1E6E13EF0CF0000E09
:10181000086E200E076E17C009F018C00AF054ECCD
:101820000DF01E4A1F2A20501E5C1F50800A1D6E9C
:101830002150800A1D58D8A020EF0CF022EF0CF0A8
:1018400007EF0CF00001AFB128EF0CF02AEF0CF01D
:1018500034EF0CF019C010F01AC011F017C012F0DC
:1018600018C013F009EC10F019C005F01AC006F00A
:10187000AEEC10F020500524176E21500620186E93
:101880001200FEEC11F00009D8B449EF0CF04BEF58
:101890000CF086EF0CF059EF0CF079EC12F0A2EF9F
:1018A0000CF075EC12F0A2EF0CF06DEC12F0A2EF60
:1018B0000CF072C00EF073C00FF002D86AEF0CF09B
:1018C0000500FA6E00016651FD6E6751FE6EFF6AFB
:1018D000FA501200106E116A1150000AD8B473EF5A
:1018E0000CF055EF0CF01050010AD8B455EF0CF085
:1018F000030AD8B44DEF0CF0010AD8B451EF0CF044
:10190000070AD8B455EF0CF055EF0CF000018391A5
:101910007DC0D9FF7EC0DAFF7D4B7E2BDF507DEC92
:1019200012F000017F07D8A080077F518011D8A452
:101930009CEF0CF09EEF0CF0A1EF0CF0060EA2EF66
:101940000CF0030E12008E0E5824D96EDA6A000EC7
:10195000DA22000EDF6EABA4B0EF0CF0B2EF0CF0A9
:10196000C6EF0CF08E0E5824D96EDA6A000EDA2219
:101970000001DF8202D8C6EF0CF00500FA6EE751D5
:10198000FD6EE851FE6EFF6AFA501200ABA2CBEF7B
:101990000CF0CDEF0CF0E1EF0CF08E0E5824D96E68
:1019A000DA6A000EDA220001DF8402D8E1EF0CF0DF
:1019B0000500FA6EE551FD6EE651FE6EFF6AFA50C3
:1019C00012008E0E5824D96EDA6A000EDA22DF5029
:1019D000D8B4EDEF0CF0EFEF0CF0FEEF0CF002D806
:1019E000FCEF0CF00500FA6E0001E351FD6EE451CE
:1019F000FE6EFF6AFA50120000EF0DF066EC11F077
:101A0000120094EC12F07DC0D9FF7EC0DAFFDF6EC9
:101A100000017D4B7E2B7F07D8A080077F5180116E
:101A2000D8B415EF0DF017EF0DF01CEF0DF084ECAE
:101A300012F0050E53EF0DF0838727EF0DF061ECE8
:101A400012F053EF0DF065EC12F053EF0DF06CC097
:101A50000EF06DC00FF002D837EF0DF00500FA6EF2
:101A60006051FD6E6151FE6EFF6AFA501200106EF9
:101A7000116A1150000AD8B440EF0DF023EF0DF0B9
:101A80001050010AD8B423EF0DF0030AD8B41FEFA9
:101A90000DF0010AD8B41FEF0DF0070AD8B423EFF8
:101AA0000DF023EF0DF0120009500A10D8B45BEFCF
:101AB0000DF05DEF0DF066EF0DF009500A10D8A49F
:101AC00064EF0DF066EF0DF06BEF0DF007503AECA0
:101AD00012F09EEF0DF020EE09F00950D9260A50C1
:101AE000DA22DE50DE10D8B478EF0DF07AEF0DF088
:101AF00095EF0DF020EE09F00950D9260A50DA22B0
:101B000010EE03F00950E1260A50E222DE50E65CB6
:101B1000E650800A0F6EDE50800A0F58D8B093EF5F
:101B20000DF095EF0DF09EEF0DF020EE03F0095053
:101B3000D9260A50DA22DE2A000EDD221200056EB6
:101B4000010E066E000183B5A8EF0DF0AAEF0DF0AF
:101B5000E4EF0DF005C07CF08393838583910E0E36
:101B6000816F010E7B6FF40E7A6F8387340E606F86
:101B7000250E616F000E6C6F000E6D6F340E626F7C
:101B8000250E636F000E6E6F000E6F6F340E646F64
:101B9000250E656F000E706F000E716F340E666F4C
:101BA000250E676F000E726F000E736F300E686F38
:101BB000250E696F000E746F000E756FA6EC12F0A3
:101BC000A1EC11F0000E066E065012000001838792
:101BD000F7EF0DF071EC12F023EF0EF092EC12F033
:101BE000030E23EF0EF06DEC12F023EF0EF06CC03D
:101BF0000EF06DC00FF002D807EF0EF00500FA6E80
:101C00006051FD6E6151FE6EFF6AFA501200106E57
:101C1000116A1150000AD8B410EF0EF0F3EF0DF076
:101C20001050010AD8B4F3EF0DF0030AD8B4EAEF6C
:101C30000DF0010AD8B4EAEF0DF0070AD8B4EEEFC0
:101C40000DF0F3EF0DF01200096E05500610D8B438
:101C50002CEF0EF02EEF0EF048EF0EF00950020DB3
:101C6000600EF324D96E000EF420DA6E05C0DEFF9C
:101C700006C0DDFF0950020D6C0EF324D96E000E74
:101C8000F420DA6E07C0DEFF08C0DDFF60EF0EF063
:101C90000950020D600EF324D96E000EF420DA6EA6
:101CA000340EDE6E250EDD6E0950020D6C0EF3242F
:101CB000D96E000EF420DA6E000EDE6E000EDD6EC0
:101CC00012009D9A460E056E190E066E49EC12F032
:101CD0009D989A0E056E200E066E44EC12F0080ECA
:101CE000B86E900EAB6E240EAC6ECF0EAF6E000EC3
:101CF000B06E500E056E250E066E53EC12F0140EEB
:101D0000056E250E066E4EEC12F01A0E056E250EAF
:101D1000066E58EC12F0000E0001B26F000E5A6E03
:101D2000000E596E080EED6F000E586E000E576EC5
:101D3000000E566E9D8A1200176E000E186E175018
:101D40009FEC0DF00009D8B4A8EF0EF0AAEF0EF04A
:101D50009FEF0EF0480E0A6E220E0B6E180E0C6EE0
:101D6000000E0D6EDDEC11F0160E056E000E066E07
:101D7000000E086E010E076E8FEC11F0000E0A6E59
:101D8000000E0B6E000E0C6E000E0D6ED1EC11F0FD
:101D90005DEC12F050EC11F0E806D8B4D2EF0EF082
:101DA000D4EF0EF0CAEF0EF018501200A6EC12F0AD
:101DB000000183A1DEEF0EF0E0EF0EF0EDEF0EF08C
:101DC000FEEC11F00009D8B4E8EF0EF0EAEF0EF0E7
:101DD000EDEF0EF00F0E0001816F00018151020D39
:101DE000010EF324F66E100EF420F76EF86A000E62
:101DF000F8220900F5CF12F00900F5CF13F002D850
:101E00000BEF0FF00500FA6E1250FD6E1350FE6ED0
:101E1000FF6AFA5012000001816F1200186E18500C
:101E20009FEC0DF00009D8B418EF0FF01AEF0FF087
:101E30000FEF0FF0F00E0A6E210E0B6E170E0C6EE8
:101E4000000E0D6EDDEC11F0160E056E000E066E26
:101E5000000E086E010E076E8FEC11F0000E0A6E78
:101E6000000E0B6E000E0C6E000E0D6ED1EC11F01C
:101E70005DEC12F050EC11F0E806D8B442EF0FF030
:101E800044EF0FF03AEF0FF01200E9EC11F0060EFC
:101E90000001E26F130EE16FAD0EE82EFED7E12FC9
:101EA000FCD7E22FFAD700F000F081EC12F0F28EAE
:101EB000F28CE1EC10F00001B16F210EDB6F100E1F
:101EC000DC6FB1C0DDF0DE6B7BEC11F0060E0001C3
:101ED000E26F130EE16FAD0EE82EFED7E12FFCD7B7
:101EE000E22FFAD700F000F059EF0FF058EF00F0B2
:101EF00000018391020E826F86EF0FF071EC12F0F9
:101F0000AAEF0FF06DEC12F0AAEF0FF070C00EF018
:101F100071C00FF002D896EF0FF00500FA6E645111
:101F2000FD6E6551FE6EFF6AFA501200106E116A66
:101F30001150000AD8B49FEF0FF082EF0FF010504D
:101F4000020AD8B47EEF0FF0010AD8B47EEF0FF08A
:101F500082EF0FF01200D5C0D9F0D6C0DAF0000E33
:101F60000001AA6F000EA96FC9EF0FF0D3C046F0B1
:101F7000D4C047F0D90E486E000E496ED7C04AF063
:101F8000D8C04BF089EC09F046500001A927475012
:101F9000AA23D9C0F6FFDAC0F7FFF86A0800F550A7
:101FA0000009D8A4D6EF0FF0D8EF0FF0B6EF0FF07E
:101FB000A9C0D3F0AAC0D4F01200056E0001ED5103
:101FC000D8B4E5EF0FF0E7EF0FF0DEEF0FF09DB8BC
:101FD000ECEF0FF0EEEF0FF0F2EF0FF005C0ADFFFA
:101FE00007EF10F09D989E0E5A24D96EDA6A000E03
:101FF000DA2205C0DFFF5A2A070E5A6402EF10F0FA
:1020000004EF10F006EF10F0000E5A6EED079D88F9
:102010001200000E166E000E156E1AEF10F014C0AE
:1020200007F0086A12C009F013C00AF054EC0DF072
:10203000154A162A15501024D96E16501120DA6E42
:10204000DF50146E1450D8A428EF10F02AEF10F0CF
:102050000FEF10F01200146E010E156E000183B325
:1020600034EF10F036EF10F04BEF10F08383000EDA
:10207000156E1450D8B43FEF10F041EF10F045EF5B
:1020800010F0010E816F47EF10F0020E816FA0EC8F
:1020900012F0C2EC11F015501200080E0001ED61B3
:1020A00054EF10F056EF10F06CEF10F09E0E592424
:1020B000D96EDA6A000EDA22DF50AD6E592A070EA9
:1020C000596465EF10F067EF10F069EF10F0000E43
:1020D000596EED2B6DEF10F09D98120018BE7BEF3E
:1020E00010F0185006E11704D8B079EF10F07BEF2C
:1020F00010F089EF10F017C019F018C01AF0191E6F
:102100001A1E194A1A2A19C017F01AC018F08DEFB2
:1021100010F017C017F018C018F0120020EE02F0EF
:102120000E50D9260F50DA22DECF05F0DDCF06F0B3
:102130000EC0D9FF0FC0DAFFDECF07F0DDCF08F009
:102140008FEC11F0000E0A6E000E0B6E000E0C6E7E
:10215000000E0D6EDDEC11F0020E120005C007F04E
:1021600006C008F0B6EF10F0054A062A05C0D9FFF0
:1021700006C0DAFFDF50D8A4C0EF10F0C2EF10F0B5
:10218000B4EF10F00750055C056E08500658066E57
:102190001200000E8D6E000E8C6E000E896E000E09
:1021A0008A6E000E8B6E070E966E92689368BF0E55
:1021B000946E95687E681F0E7F6E000E7C6EF18EA9
:1021C0001200020E166E1C0E9CEC0EF00001846FC5
:1021D00084A1EDEF10F0EFEF10F0F7EF10F0050E27
:1021E000166E1C0E9CEC0EF00001846F84511200E0
:1021F0000EC005F00FC006F0000E086E010E076E4F
:102200008FEC11F0000E0A6E000E0B6E000E0C6EBD
:10221000000E0D6EDDEC11F0040E12000EC005F084
:102220000FC006F0000E086E020E076E8FEC11F064
:10223000000E0A6E000E0B6E000E0C6E000E0D6E80
:10224000DDEC11F0020E12000EC005F00FC006F01A
:10225000000E086E010E076E8FEC11F0000E0A6E74
:10226000000E0B6E000E0C6E000E0D6EDDEC11F00C
:10227000020E12000EC005F00FC006F0000E086E30
:10228000020E076E8FEC11F0000E0A6E000E0B6E40
:10229000000E0C6E000E0D6EDDEC11F0040E12003F
:1022A000010E056E000183B358EF11F05AEF11F0E3
:1022B00064EF11F083957C69A6EC12F0A2EC12F0A9
:1022C000A4EC12F082C005F005501200960E5824BE
:1022D000D96EDA6A000EDA22AECFDFFF582A070E77
:1022E000586475EF11F077EF11F079EF11F0000EEF
:1022F000586E562A1200DD0E0001DF6F000EE06FEF
:10230000000ED36F000ED46FDBC0D5F0DCC0D6F06A
:10231000DF0ED76F000ED86FABEC0FF0120000018C
:1023200083A795EF11F097EF11F0A0EF11F005C022
:102330007DF006C07EF007C07FF008C080F0839774
:102340001200C6BAA6EF11F0A8EF11F0B1EF11F02C
:10235000000EC76E080EC66E000EC56E130EC86E58
:10236000C68A120000EE60F0730EEE6AE806FDE128
:102370005A6A596A586A576A566A5B905B920001BA
:1023800045EF0FF0C8EF11F010EC12F0D6EC0EF0A4
:10239000000183B3CEEF11F0D0EF11F0C4EF11F0D4
:1023A00012000AC005F00BC006F00CC007F00DC00B
:1023B00008F0020E24EC0EF012000AC005F00BC06B
:1023C00006F00CC007F00DC008F0000E24EC0EF073
:1023D000120090EC12F0F4EC11F0C9EC10F03FECAC
:1023E00012F061EC0EF01200000EC76E080EC66E01
:1023F000000EC56E130EC86EC69A1200C5BC03EF60
:1024000012F006EF12F0010E07EF12F0000E1200AC
:102410000E0E166E800E176E1C0E0EEC0FF01200D4
:102420009EA615EF12F017EF12F010EF12F0120047
:10243000000183817C517C257DEC12F0030E12009B
:1024400000018381D8807C357DEC12F0050E1200EE
:1024500000018393000E826F0E0E12000001839123
:1024600096EC12F0040E120000018393000E826FAE
:102470000E0E1200066E0650DDEC0FF01200600E1C
:10248000D36E000E9B6E120005C0EBF006C0ECF0A0
:10249000120005C0E9F006C0EAF0120005C0E5F040
:1024A00006C0E6F0120005C0E7F006C0E8F0120032
:1024B00005C0E3F006C0E4F01200000E2BEC10F0B3
:1024C000120087EC12F0090E120087EC12F00A0ECF
:1024D000120084EC12F0050E12009CEC12F0000EBB
:1024E00012009EEC12F0010E12009EEC12F0020E91
:1024F00012009EEC12F0010E1200056E05C0C9FF1D
:10250000120008EC12F01200C59AC5881200C58AA4
:10251000C5881200AB98AB88120066EC11F012006F
:10252000D09E12009E861200C9501200C58612006D
:10253000050E1200010E1200C5841200C5821200A1
:10254000C58012009D961200C69A12009E96120037
:02255000120077
:020000040020DA
:08000000FFFFFFFFFFFFFFFF00
:020000040030CA
:0E000000FF081F1EFF0B81FF0FC00FE00F4017
:00000001FF
